:020000040800F2
:1000000060040020251900080119000803190008E0
:100010000519000807190008091900080000000068
:100020000000000000000000000000000B190008A4
:100030000D190008000000000F1900081119000830
:100040005119000855190008591900085D190008D0
:100050006119000865190008691900086D19000880
:100060007119000875190008791900087D19000830
:100070008119000885190008891900088D190008E0
:100080009119000895190008991900089D19000890
:10009000A1190008A5190008A9190008AD19000840
:1000A000B1190008B5190008B9190008BD190008F0
:1000B000C1190008C5190008C9190008CD190008A0
:1000C000D1190008D5190008D9190008DD19000850
:1000D000E1190008E5190008E9190008ED19000800
:1000E000F1190008F5190008F9190008FD190008B0
:1000F000011A0008051A0008091A00080D1A00085C
:10010000111A0008151A0008191A00081D1A00080B
:10011000211A0008251A0008291A00082D1A0008BB
:10012000311A0008351A0008391A00083D1A00086B
:10013000411A0008451A0008491A00084D1A00081B
:10014000511A0008551A0008591A00085D1A0008CB
:10015000611A0008651A0008691A00086D1A00087B
:10016000711A0008751A0008791A00087D1A00082B
:10017000811A0008851A0008000000000000000035
:10018000891A00088D1A000838B5040001D1012031
:1001900032BD00F0CBF818B900F0C4F800F0C4FB91
:1001A000FFE702206870211D206800F0A8F90120F7
:1001B0002873A870E87028716871A871E8712872B6
:1001C0006872A872E8726870002032BD38B5040009
:1001D00001D1012032BD00F0A9F818B900F0A2F851
:1001E00000F0E4FBDDE770B500F092F809B90278A1
:1001F0000FE0042908BF42780BD0082908BF827895
:1002000007D00C2908BFC27803D010290CBF02798F
:100210004279012A01D0012070BD11B90222027079
:1002200014E0042902D1022242700FE0082902D111
:10023000022282700AE00C2902D10222C27005E07B
:10024000102907BF022202710223437100F044F813
:1002500000F04BF818BF904208D088421FBFDFF86B
:10026000BC50A842DFF8B860B04201D100F01FF8DE
:1002700024689C4218BFB4F1804F0BD000F024F8E2
:100280001CBF1F4B9C4205D000F01BF81CBF9442C2
:100290008C4208D100F010F818BFB1F5803F04D0AF
:1002A00000F01EF801E000F012F8002070BD456C6F
:1002B00045F4004545647047A16817480140062988
:1002C00070471048844270470C4884427047216848
:1002D00041F00101216070472068012200F0E3BA7B
:1002E000206840F00100206070472068024B064AF9
:1002F0000649984270470000002C0140000400406D
:1003000000080040000C0040003401400040014063
:10031000044604F13E00704707000100004401401C
:1003200000480140002129702046704704F13C0537
:100330006878704738B500F07EF801D1022032BDF0
:10034000012084F83C0052B1042A19D0082A29D08F
:100350000C2A38D0102A48D0142A57D067E02068D9
:1003600000F023F92168886940F0080088618869F5
:1003700020F0040088618A69286902438A6156E096
:10038000206800F053F92068816941F400618161BF
:10039000816921F48061816181692A6941EA0221D0
:1003A000816144E0206800F07AF92168C86940F072
:1003B0000800C861C86920F00400C861CA692869DA
:1003C0000243CA6133E0206800F0A1F92068C169E6
:1003D00041F40061C161C16921F48061C161C169F9
:1003E0002A6941EA0221C16121E0206800F0B6F9E2
:1003F0002168486D40F008004865486D20F0040011
:1004000048654A6D286902434A6510E0206800F09B
:10041000CFF92068416D41F400614165416D21F4DF
:1004200080614165416D2A6941EA022141650020F0
:1004300084F83C0032BD04460D4694F83C00012887
:10044000704738B500F04FF801D1022032BD0120CD
:10045000207002226270DFF8B4032A6893680340B8
:1004600093600868020018BF10282DD0202818BFFC
:10047000302829D0402823D0502816D0602818D002
:10048000702803D0B0F5005F07D021E000F026F817
:100490002868816841F0770105E000F01FF82868BE
:1004A000816841F48041816012E000F013F850212E
:1004B0000BE0CA684968286800F0D1F9602104E0BF
:1004C00000F008F8402100E00146286800F0D9F962
:1004D0000FE00000CA6849682868B1E1CB684A6843
:1004E00089682868D5E1054605F13C042078012893
:1004F00070470120607000212170002032BD2DE97D
:10050000F043DFF80C73D0F800C0DFF80833DFF8F1
:100510000843DFF80853DFF80863DFF808E3DFF883
:100520000883DFF80893B84218BFB0F1804F07D0B6
:10053000484518BF404503D0704518BFB0420ED1A2
:100540004A68B8422CF0700C18BFB0F1804F42EAF4
:100550000C0C0CD048451CBF4045704507D0B0423C
:1005600018BFA84203D0A04218BF984204D1CA685D
:100570002CF4407C42EA0C0C4A692CF0800C42EAD4
:100580000C020260B8428A68C26218BFB0420A68B0
:10059000826204D0A8421CBFA042984201D10969DE
:1005A000016301224261BDE8F0832DE9F041026A56
:1005B000DFF85C82DFF868E2DFF85C72DFF85CC2CB
:1005C000520852000262066A44688569DFF86022B8
:1005D0000B6826F0020615408A6816431D43404505
:1005E00018BF70458B4B04D060451CBFB842984281
:1005F0000DD1CA6826F008061643404518BF70455D
:1006000026F0040605D0604518BFB84201D09842D4
:1006100005D14B698A6924F440741C431443446037
:100620008561496841630662BDE8F081F0B5026A00
:1006300022F010020262056A436884697D4A0E68EE
:1006400014408A6844EA062425F0200545EA02158C
:100650006F4E734AB04218BF904208D1CF6825F060
:10066000800545EA0715B04225F040050AD09042C2
:100670001CBF6A4A904205D0674EB0421CBF654A13
:10068000904206D14E698A6923F44063164343EAD7
:10069000860343608461496881630562F0BDF0B5FB
:1006A000026A634B22F480720262066A4468C5697A
:1006B0000A6826F400761D408B6846EA0326154337
:1006C000534B574A984218BF904208D1CF6826F43E
:1006D000006646EA0726984226F480660AD09042D1
:1006E0001CBF4E4A904205D04B4B98421CBF494A12
:1006F000904206D14B698A6924F44054134344EA7A
:1007000003144460C5614968C1630662F0BD70B5F9
:10071000026A22F480520262036A4468C569454A4B
:1007200000F06DF823F4005343EA0233B0421CBFDB
:100730003B4A904207D0394EB0421FBF364A9042E2
:10074000344EB04204D14A6924F4804444EA82140D
:100750004460C56149680164036270BD70B5026A96
:10076000354B22F480320262046A4568466D0A689D
:100770001E4016438B68264A24F4003444EA03449E
:1007800090421CBF264B984207D0244A90421FBF7C
:10079000214B98421F4A904204D14A6925F4803582
:1007A00045EA02254560466549688165046270BD79
:1007B00070B5026A22F480120262036A4468456DD1
:1007C0001E4A00F01CF823F4001343EA0253B0421F
:1007D0001CBF134A904207D0104EB0421FBF0E4AB2
:1007E00090420C4EB04204D14A6924F4802444EA79
:1007F0008224446045654968C165036270BD0E6826
:10080000154045EA06258A68014E70478800FEFFBC
:10081000002C0140004801400044014000400140DC
:1008200000340140000C004000080040000400407B
:100830008CFFFEFFFF8CFFFE8FFFFEFFFF8FFFFE92
:1008400010B5036A046A64086400046223F00A03B2
:10085000846924F0F00444EA021484612EE010B5A7
:10086000036A23F0100303628369046A23F470436C
:1008700043EA023324F0A004836144EA01140462D1
:1008800010BD826822F07002114341F007018160BF
:10089000704710B5846824F47F442143114341EA32
:1008A0000321816010BD10B501F01F01036A01240E
:1008B0008C40A343036202FA01F1036A1943016207
:1008C00010BD30B4002513E050F8042BD30744BF0B
:1008D000A9F101039A18091F042942F8045BFAD20E
:1008E00013468C0744BF15809B1CC90748BF1D7069
:1008F00050F8041B0029E7D130BC7047264881B06E
:10090000816841F001018160816801F0010100917D
:100910000099026842F080520260006800F0805046
:100920000090009801B0704781B000681B49884270
:1009300009D11B48026842F480320260006800F46A
:1009400080300090009801B0704710B586B0044622
:100950001422002101A800F02AF821680F488142E2
:1009600017D11048016841F0020101604FF4804145
:10097000006800F002000090022200980A480191ED
:1009800002920021039104910E21059101A900F02A
:100990002FF806B010BD0000581002400040014082
:1009A000601002404C10024000040048704710B52F
:1009B000044610460A460146204600F009F9204642
:1009C00010BD30B40EE00268436802440830DC0712
:1009D00044BFA9F10104E31852F8045B43F8045B37
:1009E000091FF9D150F8041B0029ECD130BC704725
:1009F0002DE9F84F4FF000096C4A6D4B4FF00F088E
:100A000005460E4634E06B4CA54214BF072406246D
:100A10008C4069493C4341F82C40C143146801EAC9
:100A2000040C7468E40348BF40EA0C0CC2F800C030
:100A3000546801EA040C7468A40348BF40EA0C0C33
:100A4000C2F804C0946801EA040C7468E40248BF68
:100A500040EA0C0CC2F808C0D46801EA040C7168C2
:100A6000890248BF40EA0C0CC2F80CC009F1010928
:100A7000316831FA09F000F09780012404FA09F492
:100A800014EA0100F2D04FEA490C032101FA0CF1FB
:100A90006FEA010E7168E443012918BF022903D0EF
:100AA000112918BF122910D1A968F7680EEA0101AF
:100AB00007FA0CF73943A96069687768C7F300172C
:100AC000214007FA09F739436960716801F00307AB
:100AD000032F07D1EF6AC1F3C0013C4001FA09F1CD
:100AE0000C43EC62E968B4680EEA010104FA0CF404
:100AF0002143E9604FEA89017468022C18BF122C67
:100B000012D14FEAD90405EB840401F01C07D4F894
:100B100020A008FA07FB2AEA0B0AD6F810B00BFA55
:100B200007F747EA0A0727622C680EEA04073479B8
:100B300004F0030404FA0CF43C432C607468E400F1
:100B400094D51C6844F001041C604FEA990C1C68A1
:100B500004F00104009401F00C01009C164C54F8C0
:100B60002C4008FA01F724EA0707B5F1904F08BFB7
:100B7000002418D0114CA54208BF012413D0104CFA
:100B8000A54208BF02240ED00E4CA54208BF032484
:100B900009D00D4CA54208BF042404D00B4CA5423B
:100BA0007FF431AF052433E7BDE8F18F0004014045
:100BB000601002400018004808000140000400488E
:100BC00000080048000C00480010004800140048CD
:100BD00062F30F2262F31F42401810F0030308D0A3
:100BE000C91A1FD3DB0748BF00F8012D28BF20F822
:100BF000022D130030B414461546103928BF20E9E1
:100C00003C00FAD8490728BF20E90C0048BF40F84B
:100C1000042D890028BF20F8022D48BF00F8012DBF
:100C200030BC7047C91818BF00F8012DCB0728BF8A
:100C300000F8012D704700002DE9FC47050065D044
:100C4000DFF8C076DFF8CC66BC68F86800F003080F
:100C50002878C10604F00C0448D524B10C2C08BF38
:100C6000B8F1010F2CD13868810702D5A869002896
:100C70004CD0396808074EBF396871680909286A7D
:100C800001F0F001814206D200F002FB00283DD1C4
:100C900000F0F5F907E000F0F2F924B9286A00F055
:100CA000F7FA002832D100F0AAFABA6800F079FA0F
:100CB000DFF85806006800F043FB010016D0D8E1C9
:100CC000A86928B3396841F00101396000F05AFB86
:100CD00081463868810707D400F054FBA0EB090077
:100CE0000328F6D30320C4E100F0C9F92878C1072E
:100CF00056D5082C04D00C2C08BFB8F1030F18D11E
:100D0000386881034CD56868002849D10120B0E1DA
:100D1000386840084000386000F034FB814638688D
:100D20008107E3D500F02EFBA0EB09000328F6D3E2
:100D3000D8E76868B0F5803F04D1386840F4803067
:100D4000386011E0B0F5A02F386806D140F480205B
:100D50003860396841F4803105E020F48030386033
:100D6000396821F480213960686860B100F00AFBBD
:100D700081463868810313D400F004FBA0EB09001E
:100D80006528F6D3AEE700F0FDFA814638688103A6
:100D900006D500F0F7FAA0EB09006528F6D3A1E725
:100DA0002878810713D5042C04D00C2C08BFB8F187
:100DB000020F22D13868410502D5E8680028A5D085
:100DC0007868296920F0F85040EA01607860287856
:100DD000010743D568690028706830D040F00100F1
:100DE000706000F0CFFA80467068810736D400F05A
:100DF000C9FA00F040F9F7D374E7E86878B13968C8
:100E000041F48071396000F0BDFA804638684105D0
:100E1000D6D400F0B7FA00F02EF9F7D362E73868BD
:100E200020F48070386000F0ADFA804638684105E3
:100E3000CDD500F0A7FA00F01EF9F7D352E740082D
:100E40004000706000F09EFA80467068810705D50A
:100E500000F098FA00F00FF9F7D343E7287841073C
:100E600067D5B86DC1004FF000080AD4B86D40F0E6
:100E70008050B8654FF00108B86D00F080500090C8
:100E80000098DFF89494D9F80000C10513D4D9F87C
:100E9000000040F48070C9F8000000F073FA824648
:100EA000D9F80000C10506D400F06CFAA0EB0A00E6
:100EB0000328F5D316E7A868012804D1306840F06C
:100EC0000100306010E00528306806D140F00400D1
:100ED0003060316841F0010105E0400840003060B9
:100EE000316821F004013160A86841F2893960B1AC
:100EF00000F048FA82463068810713D400F042FAC5
:100F0000A0EB0A004845F6D3ECE600F03BFA824637
:100F10003068810706D500F035FAA0EB0A00484595
:100F2000F6D3DFE6B8F1000F03D0B86D20F08050A3
:100F3000B865A86A002800F09B80022878D1F8687C
:100F4000EA6A00F00301914201BF00F070012A6BD0
:100F5000521EB1EB021F1ED16A6B00F4FE41B1EBD1
:100F6000022F18D1A96B07290CBF0021012100F421
:100F700000328A420FD1EA6B520800F4C001521EBF
:100F8000B1EB425F07D1296C490800F0C060491EEF
:100F9000B0EB416F48D00C2C4BD03868410101D4E4
:100FA0003868C1003FF5B2AE386820F08070386014
:100FB00000F0E8F904463868810105D500F0E2F94F
:100FC000001B0328F7D38DE6F868DFF85013EA6AB0
:100FD0000840296B1043491E40EA0110EA6B696B17
:100FE000520840EA0120296C521E490840EA42504A
:100FF000491E40EA4160A96B090940EA4140F86096
:10100000386840F080703860F96841F08071F960AC
:1010100000F0B8F904463868810129D400F0B2F92B
:10102000001B0328F7D35DE63868810120D4E7E789
:101030000C2C3FF46BAE386820F080703860396853
:1010400011F0205F03D1F86880088000F860F9682B
:10105000DFF8CC020140F96000F094F904463868EA
:10106000810105D500F08EF9001B0328F7D339E67E
:101070000020BDE8F687A0EB080003287047386819
:1010800040F0080038603968286A21F0F001014317
:1010900039607968E86921F47F4141EA002179608B
:1010A00070472DE9F0410400884658D0DFF874629B
:1010B000306800F00700404509D23168C90848EAA5
:1010C000C1013160306800F00700404547D1207809
:1010D000DFF83052C1072AD56068032802D1296899
:1010E0008A0108E0022802D129688A0303E0002867
:1010F000296802D18A0702D431E04A052FD5A968B0
:10110000890840EA8100A86000F03CF90746A86819
:10111000616800F00C00B0EB810F08D000F032F9EC
:10112000C01B41F289318842F1D3032037E0207897
:10113000810705D5AA68A06822F0F0020243AA60E0
:10114000316801F0070188450BD23068C00848EAD1
:10115000C0003060316801F00701414501D0012035
:101160001DE02078410705D5AA68E06822F4E06216
:101170000243AA602178080706D5A968206921F4EE
:10118000605141EAC001A96000F039F8AA6800F096
:1011900008F8BDE8F0415D48006800F0D1B8BDE84E
:1011A000F0816149C2F30312895C574A01F01F01C3
:1011B000C8401060704770B55C4E86B0706C40F0EF
:1011C000010070641546706C00F00100009002226E
:1011D0000C460098029204924FF480710191002213
:1011E0000392059201A94FF09040FFF701FC31688E
:1011F00021F0EE410C432C43346006B070BD70B555
:10120000404A4B4B9068D6680025002110F00C0036
:1012100006F00306474C03D00C2812D1012E1AD138
:1012200015682E0704D43A4D2E68C6F3032502E054
:101230001568C5F30315404E56F8255048B92946A0
:1012400024E0042808BF214620D008281ED11946D2
:101250001CE00C281AD1D06800F00300022803D04B
:10126000032808BF1D4600E02546D168D068D26833
:10127000C0F306204543C1F30210C2F34161401C94
:10128000491CB5FBF0F04900B0FBF1F1084670BD18
:101290007CB52A4E054630680024C10002D500F016
:1012A00077F80EE0306840F080503060316801F02F
:1012B00080510091009800F06BF8316821F0805166
:1012C0003160B0F5007F04D1802D0CD9A12D09D358
:1012D00004E0802D88BF032405D801D1022402E058
:1012E000702D00D101240F480168C90844EAC101EA
:1012F0000160006800F00700A04201D0012076BD27
:10130000002076BD001002400C00002008000020E4
:101310009410024090100240007000408C809DF9B3
:10132000FFFFEEFE002002400818000808100240EF
:1013300000127A000024F400181800085810024027
:1013400070B50E4E044630780025A0B14FF47A7186
:101350000B4AB1FBF0F11068B0FBF1F000F092F82D
:1013600048B9102C07D2002221464FF0FF3000F080
:101370006BF8B46000E00125284670BD0000002035
:101380000C00002001484068704700BF00000020AA
:10139000DFF87400006800F4C060704710B5DFF833
:1013A0006810B0F5007F086800F4C06019D1B0F58E
:1013B000007F1FD00868DFF85420DFF8544020F485
:1013C000C06040F4007000F017F800E0401E4A6969
:1013D000530501D50028F9D1486941050AD50320F4
:1013E00010BDB0F5806F05D0086820F4C06040F4EF
:1013F00080600860002010BD0860322013684343FD
:10140000B3FBF4F0401C7047007000400C0000205B
:1014100040420F000901020002D424488154704761
:10142000234B02F00F021A4402F8041C7047214BB0
:1014300019684FF6FF020002114000F4E060084313
:101440001D4908431860704770B51A4B1C68C4F3F7
:1014500002230124C3F10705052D2EBF0F2504FA31
:1014600005F56D1E1E1D072E34BF0023DB1E29400F
:10147000994004FA03F3BDE870405B1E1A40114323
:10148000C8E7000010B5401EB0F1807F01D30120F5
:1014900010BD0A4C60600F214FF0FF30FFF7BAFF1C
:1014A0000021A16007202060002010BD00E400E0C2
:1014B00018ED00E00CED00E00000FA0510E000E09F
:1014C00078B599B000F0E4F800F0AAF814220021F1
:1014D00001A8FFF76CFA4F484F4C01684F4D41F09F
:1014E000800101604FF6FF76026802F080020092F0
:1014F0000099026842F002020260036803F00203EE
:1015000000930099026842F0010202604FF480717A
:10151000006800F001000090022200980191029200
:1015200000210391049105914FF0904001A9FFF72C
:101530005FFA102200210AA8FFF739FA0C220021D5
:101540006846FFF734FA1C22002103A8FFF72FFAA0
:101550002C2200210EA8FFF72AFA00206060A0606C
:101560002061606125608020A061E6602046FEF772
:101570000BFE08B100F08AF84FF480500A900AA9D7
:101580002046FEF75EFF08B100F080F82046FEF727
:101590001DFE08B100F07AF800210091029120466A
:1015A000694600F085F808B100F070F8602000216D
:1015B00003900491002206910891059207920992E6
:1015C00003A92046FEF7B6FE08B100F05FF8002040
:1015D0004FF400510E900F901090119012901391B3
:1015E00018900EA9204600F0A0F808B100F04EF8BF
:1015F0002046FFF7AAF900212046FEF7F4FD00205F
:1016000068630A30B042FBDB304668630A38022860
:10161000FBDAF4E74C1002401000002000400140CB
:1016200080B596B04422002105A8FFF7C0F9142226
:1016300000216846FFF7BBF94FF40070FFF7AEFEDC
:1016400008B100F023F801210B9110200590002231
:1016500060210C920D910F9205A8FFF7EDFA08B1E9
:1016600072B6FEE70F2000900021019102910391D4
:1016700004916846FFF715FD08B172B6FEE7002237
:101680004FF08071FFF797FD17B000BD72B6FEE70F
:10169000032010B5FFF7CBFE0F20FFF751FE00240B
:1016A000002814BF0124FFF729F9204610BD0000CF
:1016B000F0B500F13C042278012A01D10220F0BDEE
:1016C00001222270022363700668DFF8ECE077687D
:1016D000DFF8E8C0B568764518BF664503D14B68AA
:1016E00027F470071F430A6827F0700717437760D5
:1016F0000268724518BFB2F1804F0CD02D4882426B
:101700001CBF2F4B9A4206D0294882421EBF624519
:101710002C4B9A4204D1886825F0800505439560DA
:101720000121617000202070F0BD30B590F83C20A0
:10173000012A01D1022030BD012280F83C20CC6872
:101740008B684A6824F440741C4324F48064144376
:101750000B680A6924F400641C4324F48054144385
:101760004B698A6A24F400541C4324F480441443D3
:101770008B69114A24F4702444EA034403689342B9
:101780001CBF0E4DAB420CD14A6A24F4700444EAEB
:101790000254CA69096A24F08074144324F0007466
:1017A0000C435C64002280F83C20002030BD000027
:1017B000000C004000040040002C014000340140B7
:1017C00000080040004001400C48016841F47001ED
:1017D000016000220A49086840F0010008608A6040
:1017E0004FF480520B68074803400B60CA6000202A
:1017F0000B6823F480230B608861704788ED00E05C
:1018000000100240FFFFF6EA0000000000000000A8
:101810000102030406070809A0860100400D030029
:10182000801A060000350C0040420F0080841E0024
:1018300000093D0000127A000024F40000366E0119
:101840000048E801006CDC0210B507497944183102
:10185000064C7C44163404E00A68081D114488478D
:101860000146A142F8D110BD2C0000004C00000040
:101870004EF68851CEF20001086840F4700008600E
:10188000BFF34F8FBFF36F8F4FF00070E1EE100A80
:10189000704700002FF0FFFF4C00000010000020F8
:1018A000000000001FF1FFFF100000008800000092
:1018B000000000200000000000F00DF8002801D01A
:1018C000FFF7C2FFAFF300800020AFF30080FFF707
:1018D000F7FD00F002F80120704700F001B80000A9
:1018E0000746384600F002F8FBE7000080B5AFF38A
:1018F0000080024A11001820ABBEFBE72600020060
:10190000FEE7FEE7FEE7FEE7FEE770477047704739
:1019100000F000B80248416802788A1842607047B7
:10192000000000200148804701480047C91700080F
:101930004519000801000000000000001000000030
:1019400000093D00AFF30080FFF792FFFFF7B4FFFF
:10195000FFF7FEBFFFF7FEBFFFF7FEBFFFF7FEBFBB
:10196000FFF7FEBFFFF7FEBFFFF7FEBFFFF7FEBFAB
:10197000FFF7FEBFFFF7FEBFFFF7FEBFFFF7FEBF9B
:10198000FFF7FEBFFFF7FEBFFFF7FEBFFFF7FEBF8B
:10199000FFF7FEBFFFF7FEBFFFF7FEBFFFF7FEBF7B
:1019A000FFF7FEBFFFF7FEBFFFF7FEBFFFF7FEBF6B
:1019B000FFF7FEBFFFF7FEBFFFF7FEBFFFF7FEBF5B
:1019C000FFF7FEBFFFF7FEBFFFF7FEBFFFF7FEBF4B
:1019D000FFF7FEBFFFF7FEBFFFF7FEBFFFF7FEBF3B
:1019E000FFF7FEBFFFF7FEBFFFF7FEBFFFF7FEBF2B
:1019F000FFF7FEBFFFF7FEBFFFF7FEBFFFF7FEBF1B
:101A0000FFF7FEBFFFF7FEBFFFF7FEBFFFF7FEBF0A
:101A1000FFF7FEBFFFF7FEBFFFF7FEBFFFF7FEBFFA
:101A2000FFF7FEBFFFF7FEBFFFF7FEBFFFF7FEBFEA
:101A3000FFF7FEBFFFF7FEBFFFF7FEBFFFF7FEBFDA
:101A4000FFF7FEBFFFF7FEBFFFF7FEBFFFF7FEBFCA
:101A5000FFF7FEBFFFF7FEBFFFF7FEBFFFF7FEBFBA
:101A6000FFF7FEBFFFF7FEBFFFF7FEBFFFF7FEBFAA
:101A7000FFF7FEBFFFF7FEBFFFF7FEBFFFF7FEBF9A
:101A8000FFF7FEBFFFF7FEBFFFF7FEBFFFF7FEBF8A
:040000050800194591
:00000001FF
